:020000040000fa
:080000000001040000000000f3
:020000040000fa
:04000800e002000012
:020000040000fa
:04000c00e00200000e
:020000040000fa
:04001000e00200000a
:020000040000fa
:04001400e002000006
:020000040000fa
:04001800e002000002
:020000040000fa
:04001c00e0020000fe
:020000040000fa
:04002000e0020000fa
:020000040000fa
:04002400e0020000f6
:020000040000fa
:04002800e0020000f2
:020000040000fa
:04002c00e0020000ee
:020000040000fa
:04003000e0020000ea
:020000040000fa
:04003400e0020000e6
:020000040000fa
:04003800e0020000e2
:020000040000fa
:04003c00e0020000de
:020000040000fa
:04004000e0020000da
:020000040000fa
:04004400e0020000d6
:020000040000fa
:04004800e0020000d2
:020000040000fa
:04004c00e0020000ce
:020000040000fa
:04005000e0020000ca
:020000040000fa
:04005400180200008e
:020000040000fa
:04005800e0020000c2
:020000040000fa
:04005c00e0020000be
:020000040000fa
:04006000e0020000ba
:020000040000fa
:04006400e0020000b6
:020000040000fa
:04006800e0020000b2
:020000040000fa
:04006c00e0020000ae
:020000040000fa
:04007000e0020000aa
:020000040000fa
:04007400e0020000a6
:020000040000fa
:04007800780200000a
:020000040000fa
:04007c00e00200009e
:020000040000fa
:04008000e00200009a
:020000040000fa
:04008400e002000096
:020000040000fa
:04008800e002000092
:020000040000fa
:04008c00e00200008e
:020000040000fa
:04009000e00200008a
:020000040000fa
:04009400e002000086
:020000040000fa
:04009800e002000082
:020000040000fa
:04009c00e00200007e
:020000040000fa
:0400a000e00200007a
:020000040000fa
:0400a400e002000076
:020000040000fa
:0400a800e002000072
:020000040000fa
:0400ac00e00200006e
:020000040000fa
:0400b000e00200006a
:020000040000fa
:0400b400e002000066
:020000040000fa
:0400b800e002000062
:020000040000fa
:0400bc00e00200005e
:020000040000fa
:0400c000e00200005a
:020000040000fa
:0400c400e002000056
:020000040000fa
:0400c800e002000052
:020000040000fa
:0400cc00e00200004e
:020000040000fa
:0400d000e00200004a
:020000040000fa
:0400d400e002000046
:020000040000fa
:0400d800e002000042
:020000040000fa
:0400dc00e00200003e
:020000040000fa
:0400e000e00200003a
:020000040000fa
:0400e400e002000036
:020000040000fa
:0400e800e002000032
:020000040000fa
:0400ec00e00200002e
:020000040000fa
:0400f000e00200002a
:020000040000fa
:0400f400e002000026
:020000040000fa
:0400f800e002000022
:020000040000fa
:0400fc00e00200001e
:020000040000fa
:04010000e002000019
:020000040000fa
:04010400e002000015
:020000040000fa
:04010800e002000011
:020000040000fa
:04010c00e00200000d
:020000040000fa
:04011000e002000009
:020000040000fa
:04011400e002000005
:020000040000fa
:04011800e002000001
:020000040000fa
:04011c00e0020000fd
:020000040000fa
:04012000e0020000f9
:020000040000fa
:04012400e0020000f5
:020000040000fa
:04012800e0020000f1
:020000040000fa
:04012c00e0020000ed
:020000040000fa
:04013000e0020000e9
:020000040000fa
:04013400e0020000e5
:020000040000fa
:04013800e0020000e1
:020000040000fa
:04013c00e0020000dd
:020000040000fa
:04014000e0020000d9
:020000040000fa
:04014400e0020000d5
:020000040000fa
:04014800e0020000d1
:020000040000fa
:04014c00e0020000cd
:020000040000fa
:04015000e0020000c9
:020000040000fa
:04015400e0020000c5
:020000040000fa
:04015800e0020000c1
:020000040000fa
:04015c00e0020000bd
:020000040000fa
:04016000e0020000b9
:020000040000fa
:04016400e0020000b5
:020000040000fa
:04016800e0020000b1
:020000040000fa
:04016c00e0020000ad
:020000040000fa
:04017000e0020000a9
:020000040000fa
:04017400e0020000a5
:020000040000fa
:04017800e0020000a1
:020000040000fa
:04017c00e00200009d
:020000040000fa
:04018000e002000099
:020000040000fa
:04018400e002000095
:020000040000fa
:04018800e002000091
:020000040000fa
:04018c00e00200008d
:020000040000fa
:04019000e002000089
:020000040000fa
:04019400e002000085
:020000040000fa
:04019800e002000081
:020000040000fa
:04019c00e00200007d
:020000040000fa
:0401a000e002000079
:020000040000fa
:0401a400e002000075
:020000040000fa
:0401a800e002000071
:020000040000fa
:0401ac00e00200006d
:020000040000fa
:0401b000e002000069
:020000040000fa
:0401b400e002000065
:020000040000fa
:0401b800e002000061
:020000040000fa
:0401bc00e00200005d
:020000040000fa
:0401c000e002000059
:020000040000fa
:0401c400e002000055
:020000040000fa
:0401c800e002000051
:020000040000fa
:0401cc00e00200004d
:020000040000fa
:0401d000e002000049
:020000040000fa
:0401d400e002000045
:020000040000fa
:0401d800e002000041
:020000040000fa
:0401dc00e00200003d
:020000040000fa
:0401e000e002000039
:020000040000fa
:0401e400e002000035
:020000040000fa
:0401e800e002000031
:020000040000fa
:0401ec00e00200002d
:020000040000fa
:0401f000e002000029
:020000040000fa
:0401f400e002000025
:020000040000fa
:0401f800e002000021
:020000040000fa
:0401fc00e00200001d
:020000040000fa
:10020000ef8d20000eff27000e0188000000000087
:10021000000020000000e000020032000001200089
:1002200020028800140007005c0107000000e000c5
:1002300003003a008067210001002000020037001f
:100240000000200001002000810f7000010032003a
:1002500014000700000020000000e000020032004f
:100260000000020000000000f6180200000000007c
:100270000040da000000fe004440a900c004200055
:100280000000e00003003200002020009001880000
:100290004440a800000006008a1f78008b1f7800e9
:1002a00000000600a1028800800478000000eb0036
:1002b0001f003700e284440054a0b4009905ba003e
:1002c000e284440054a0b4009906ba00e2844400d9
:1002d00054a0b4000006eb00476fde00fd07b2003b
:1002e000ae018800636ce10003003a00eaff0700fa
:1002f0000000eb000e003700606ce10008003a00df
:10030000004deb000a05e800020039003420ec0043
:100310000af0a0008b05e900f9ff3e000400370059
:100320006168e100010032000086eb000b0007006d
:1003300019c7ba001905ba000e04e00003003a001c
:100340000a00e000dbff3a0000000600fe07b200f2
:10035000ae0288008a047800f5ff37000cd0a300b5
:10036000e20f4d001c00390089027800354dba00bb
:100370000a05e800020039003420ec000af0a00071
:100380008b05e9000f003200254dba000a05e80090
:10039000020039003420ec000af0a0008b05e900cf
:1003a000080032000c00e0000600320015cdba0053
:1003b0000a05e800020039003420ec000af0a00031
:1003c0008b05e9008984e80054a0b4000b00e0002c
:1003d000e2ff3a00000006009902ba00055d7800cd
:1003e0008b05e900f7ff3200c82ade00055d7800c2
:1003f0008b05e900f3ff32000c00e000f1ff320052
:1004000019ddba00eeff3700d00304000000000041
:10041000ea030400000000001804040000000000cb
:10042000980e04000000000000000400000000001e
:100430003600f800809fbe00829fbe00849fbe00f1
:10044000869fbe000200fa00d01c8000620060009f
:100450000000e000050032009a23a90004003700e4
:10046000f01c8000004f7800010037000000000001
:10047000d01c8000610060000000e000f8ff3a003e
:1004800010c4b3009e40780080cf500003003a00b3
:100490000000eb007d0a07000d00370020c4b30008
:1004a0009e40780080cf500003003a0010002000ea
:1004b000760a07000600370030c4b3009e4078007b
:1004c00080cf500002003a00200020006f0a070091
:1004d0008960a9000080fa004f03be004f02be00f1
:1004e0004f01be004f00be003600f900004006007c
:1004f0003600f800809fbe00829fbe00849fbe0031
:10050000869fbe000000fa00004080000000e80066
:100510000040880000408000e40f500001003400db
:100520000028ef00e1090700004080000000e00023
:1005300002003a00f9080700190037000040800067
:10054000e10f500003003a00608c2000f80807001b
:100550001300370000408000e20f500003003a0013
:100560000000eb00370907000d0037000040800055
:10057000e30f500004003a008000eb00608c200084
:10058000450907000600370000408000e40f5000d6
:1005900003003a0011002000608c20003e09070093
:1005a0008a80a9000080fa004f03be004f02be00ff
:1005b0004f01be004f00be003600f90000400600ab
:1005c0000040da000000fe000a00fa0011002000de
:1005d000b1bf9f00c0bf9f006a8057008906070017
:1005e0004fb897000080fa00000006000a00fa00e9
:1005f000e20f500034003e00d0468000e10f500072
:1006000003003200e20f500011003a000c003700e6
:10061000833920000300e00001003a000040da00c6
:100620009803e20002003500a023ef0099e3a80040
:100630009b43ab000d003a009b43a8000b00370022
:10064000e33a20000300e00001003a000040da0035
:10065000ae03e20002003500b623ef00afe3a800ce
:10066000b143ab0001003a00b143a8008201780019
:100670000b0037003102fb00e10f500004003a008c
:100680009b23ab00feff3a00e41c88000300370008
:10069000b123ab00feff3a00941d88008301e900fe
:1006a0000300e000f3ff3a00e10f500003003a00be
:1006b0009b03ab00feff32000b003700b103ab0021
:1006c000feff32000800370033002000b3bf9f0058
:1006d000c0bf9f00d1bf9f00e2bf9f006a8057004c
:1006e0004a0607006fb99700020078000080fa0000
:1006f000000006000a00fa0051002000b1bf9f0070
:10070000c0bf9f006a805700420607005fb897008d
:100710000080fa0000000600889fbe008004780078
:10072000e04680000000e00004003a000e000700f0
:100730000084eb000000e00008003500e84680007f
:100740000900e0000500320009004400060007002f
:100750000000e00001003d000084eb00080078008c
:100760004f04be0000000600800078000100e00099
:1007700003003a0000002000e04688000000050069
:100780000080eb0002002000828f500002003e003b
:10079000e14688000000eb000000060000000500b4
:1007a000889fbe00800478000203be000104780028
:1007b0006149b800898fd2008381d2000802780095
:1007c0000600be0015060700088044004f04be0066
:1007d00000000600881f78000204780008017800f5
:1007e000e2000700080040004f0478000000060007
:1007f0000000fa00881f7800000478006a82570021
:10080000bfb9970008017800013d2000a03e2000fc
:10081000160007000000e000020035008040eb00f9
:10082000017478004f0478000080fa000000060090
:10083000889fbe00000478000203be008104780097
:100840000802780089017800120020000600be002e
:10085000b5010700890f5000010032000004eb00d1
:10086000080078004f04be00000006006800fa008f
:10087000889fbe008a9fbe00800478000104780033
:1008800082057800030578008400780000f92f00c5
:100890000f004000a2010700d98f9f00fb8f9f002f
:1008a0000000eb00a09f9f00e88f9f009a84fb0050
:1008b0000904fb008904ea00cf4cde00500220004e
:1008c000800f54000d003200e18f54000b003a00fd
:1008d000090178008a0078007f889700df899700f7
:1008e00003000100f08f9f000000e000950032003f
:1008f0002f9897000000e800a09f9f000905450081
:1009000050022000800f5400040032000800e00074
:10091000e6ff3a002f9897008b0037000000eb00ad
:10092000809f9f00f0979f00e0979f00d0979f00c7
:10093000c0979f00b0979f0007003700018c2000f0
:100940000100500000004000418b20006100780051
:10095000cf98970001007000c09f9f000a047800a4
:1009600008057800ba4478008900fb00008c20005c
:10097000850007000000e000f0ff3a00a1c2b300cc
:1009800081cf54000e003a008f8897000180e90063
:10099000808f9f0010007800b09f9f000000e00053
:1009a00005003d000000ea00b09f9f004f989700af
:1009b0000020a000c09f9f000804e800100037003e
:1009c000b09f9f00880078000000eb000500370012
:1009d000f3ff2700830f5000020032006a02b900c3
:1009e0000400410001047800880078003101fb0018
:1009f0000203b100e90f5100f5ff3600b09f9f00e0
:100a0000e0c2b300984f1000020032000080eb00fb
:100a100019003700a0c2b300d84f100007003a00f9
:100a20008f8897000180e900808f9f001000780078
:100a3000909f9f000804e800100037000000eb00c2
:100a4000909f9f008800780005003700f3ff270083
:100a5000830f5000020032006a02b9000400410016
:100a600001047800880078003101fb000203b10026
:100a7000e90f5100f5ff3600909f9f0098447800e1
:100a80008900fb00c08a20003f0007000000e00052
:100a9000020032000804e800010037008044eb0047
:100aa000a97f9f0080c6b30080cf540006003a00a3
:100ab00098cf140010003a0066405000a07f9f00bd
:100ac0000804e8000c003700c0c6b30080cf540013
:100ad00009003a0098cf140007003a006740400030
:100ae000d84f100002003a006e405000010037005d
:100af00010c7b300a07f9f001801fb00c3fb2f00ad
:100b00008f81410001f92f008f80400020f92f00d4
:100b10000f004000ab0107000000e00009003a00b0
:100b2000c1fb2f008f80400020f92f000f004000f4
:100b3000210007000000e000020035000805e80081
:100b40005aff37000080eb004f05be004f04be0087
:100b50000080fa000000060003027800820178009d
:100b6000010178008141200040ff370080017800ba
:100b700002003700b15978000201e9000200e000ec
:100b8000fcff3a0000000600020037000304e0000a
:100b9000060032000001780002007800b0417800c1
:100ba00081cf5100f9ff3a00010037000001eb004e
:100bb00002007800000006000400fa00889fbe00d2
:100bc0008a9fbe008c1f7800000478000106780020
:100bd000a8149000280890008084540038089000e1
:100be0008084540048089000808454005808900085
:100bf0008084540068089000808454007808900035
:100c0000808454000002220090bf9f000003230054
:100c1000a0bf9f00381090000028a30015003a00e4
:100c20000900e00013003400090578008a05780007
:100c3000e20f5500010036002b002000c801900093
:100c40000b017800ee80570068009000030001005f
:100c5000600498000000e000aa0032001810900024
:100c60000b004000101498000b0555004240a900ed
:100c7000eeff3c00280990000200e0000c00340068
:100c8000c80190008c00780068009000030001000b
:100c9000600498008080eb000000e0009a003200c1
:100ca00098109000280890000080400010149800d0
:100cb000380d90000a00e000110034008a05780029
:100cc000e20f5500010036002b002000c801900003
:100cd0000b017800ec8057006800900003000100d1
:100ce000600498000000e0008600320018109000b8
:100cf0000b004000101498000b055500edff370065
:100d000008699000c808900050c6b300804f510099
:100d100008003a000100e00015003400580290007d
:100d200008099000980990006800900004000100f4
:100d3000070037000100e0000d003400c8019000fa
:100d400001017800f80090006800900003000100a5
:100d5000600498008080eb000000e0006a00320030
:100d600098109000480890000080400010149800ef
:100d7000580d90000a00e000110034008a05780048
:100d8000e20f5500010036002b002000c801900042
:100d90000b017800ec805700680090000300010010
:100da000600498000000e000560032001810900027
:100db0000b004000101498000b055500edff3700a4
:100dc000086990006808900051c6b300814f510037
:100dd0000d003a000000e0001c0034007801900093
:100de000c8089000010141006111b800828fd20053
:100df0008381d20058029000800078006800900043
:100e000004000100090037000000e0000f0034007a
:100e100078019000c808900081004100c80190004e
:100e20000001780068009000030001006004980051
:100e30008080eb000000e00033003200981090004a
:100e4000680890000080400010149800780d900011
:100e50000a00e000110034008a057800e20f550016
:100e6000010036002b002000c80190000b01780023
:100e7000ec805700680090000300010060049800b7
:100e80000000e0001f003200181090000b0040002e
:100e9000101498000b055500edff37003810900036
:100ea0008000eb000028a300170032000900e000da
:100eb0001500340009057800e28f54000100360067
:100ec0002a002000c80190000a017800ee80570037
:100ed0006800900003000100600498000000e0003a
:100ee00008003200181090000a004000101498000a
:100ef0008a8454004240a900eeff3c008000eb00d1
:100f0000010037008080eb00010078004f06780078
:100f10004f05be004f04be000080fa00000006002e
:100f20000108780000000600e6874700889fbe00a1
:100f30008a9fbe008c9fbe008e1f780082bf9f00dc
:100f400004047800029ab900f4b79f000400e0009e
:100f5000590032000fb997000200e000570032003c
:100f60000006be0004077800c800900068009000ea
:100f7000808f50000400390008007800a3010700aa
:100f80000000e0003b003500004020001800600039
:100f90000a0032008e017800a20020000c00be0082
:100fa000470407000005be000080750007003200fe
:100fb0008c0455008904e800050037008e04780091
:100fc0000a0020000b002000010037008e0478008a
:100fd000480190006800900002005000890f500006
:100fe00003003100800478000a0020000b0020007c
:100ff0006111b800828fd2008381d200090278008b
:101000000c00be00050407000907570048009000c7
:1010100009004000400498000a8575000400320071
:10102000080078002c0007000000e00011003a00e2
:101030000e00e0000f0032006148b800808fd2003f
:101040008180d2000000780000f0a1008c01d00067
:101050000001d000028641004220a80081864e0097
:101060004200a9004220ae004200a8000c86d30036
:10107000bdff370000802000180060000200320031
:10108000080078001400070000c02000180060006d
:1010900002003200c8019000630498007fb09700fe
:1010a0000e0750000fb99700110009000287d80001
:1010b00080017800010037008001eb000300780018
:1010c0004f0778004f06be004f05be004f04be001c
:1010d0006f00b10000000600889fbe000004780089
:1010e0000800e0000f003a008004eb0009047800db
:1010f0008800d000a0872000610078000000e00098
:1011000004003200f4ff07000000e00001003d0091
:101110008084eb000804e800e80f5400f4ff3a0074
:101120002500370000002200180060008004eb005a
:1011300021003200a80490000f003700090151007f
:10114000384090000000fb008900780027fd070070
:101150000000e00007003c002800900040049800d8
:1011600060049800500c98001890a0008084eb0058
:10117000110037008084440048019000828f5400a1
:10118000eeff390028009000400498009800780095
:1011900002c020000281600001003a003800900087
:1011a00001e8a3000200320060049800010037004b
:1011b000500c98008004eb00090078004f04be003a
:1011c00000000600889fbe008a9fbe00e4c6b300f0
:1011d000844f5100be00320010003c006b425200b0
:1011e000844f51001800320005003c0054c2b30087
:1011f000844f5100f600320084c5b3000f00370061
:1012000044c6b300844f51001400320065424200ce
:10121000844f5100f1003a001000370004c7b300ba
:10122000844f5100dd003200560035006542420017
:10123000844f51005300320063424200844f5100fa
:10124000e6003a004f0037001181e900820878007b
:10125000a008900012417800de003700006a90007c
:10126000c5c6b300854f520007003a0091027800ce
:1012700064825200840878001402be004fabde0086
:10128000860378001400370015c7b300854f52005d
:1012900003003a001104780068025400050037008a
:1012a000a5c6b300854f520006003a0091047800ad
:1012b00068825400840878005403be004402be00d3
:1012c000050037001182e9008408780014027800d4
:1012d000cfa2de00612bb9000498be000690be00cc
:1012e0008068900088c6b30088cf50000d0032009f
:1012f00028c6b30088cf500004003a000402fb0067
:10130000cfa2de00612bb9000800370048c7b30048
:1013100088cf5000030032006644440088cf50005c
:1013200004003a00cfa2de00612bb9000498be0091
:101330000690be003002be002003be00a008900050
:10134000e00f5200e08f5a00e00f5b00e08f5b007f
:1013500002003d00d4c2b3000800370030129000f4
:101360000418a30002003200b4c2b3000300370027
:101370000408a3005100320004c2b30084f17800d5
:101380004c003700006a9000c5c6b300854f52007c
:1013900008003a00110578006402550084087800be
:1013a0001404be006055b8000802be000a03be0067
:1013b0001400370015c7b300854f520003003a00f0
:1013c000910478006882540005003700a5c6b30078
:1013d000854f520006003a0011057800680255005a
:1013e000840878005403be004402be0005003700a4
:1013f0001182e90084087800140278008002eb0072
:101400006033b8000498be000690be00806890006b
:1014100088c6b30088cf50000d00320028c6b30044
:1014200088cf500004003a000482fb008002eb00e9
:101430006033b8000800370048c7b30088cf5000b9
:10144000030032006644440088cf500004003a0094
:101450008002eb006033b8000498be000690be0026
:10146000b01090000138a300140032003002be001a
:101470002003be00e00f5200e08f5a00e00f5b0037
:10148000e08f5b000d00320081c7b300814f510037
:101490000300320081c5b300814f510007003a00bc
:1014a000a008900004c3b30084f178008100e80034
:1014b00082f178008100e80021089800a0089000df
:1014c0008181410073009800824078003e0037001f
:1014d00080699000c4c6b3001181e90084cf510037
:1014e000220032000a003c006442520084cf5100c6
:1014f0002500320004c2e80084cf510013003200fe
:101500006842520084cf51001e003a000a003700a2
:1015100044c7b30084cf51001b0032006642420032
:1015200084cf5100180032006942520084cf51002c
:1015300014003a0005003700820878009200780015
:1015400020609000804878002c00370082087800e6
:101550009200780010129000cfa2de00612bb9003b
:101560008498be008690be00240037008208780070
:101570009200780010119000cf91de008288be00aa
:101580001e0037001181e90082087800920078007f
:101590001010900080087800180037001181e900d1
:1015a0008208780012027800cfa2de00612bb90019
:1015b0000498be000690be00a00890008181410002
:1015c0007300980081c7b300570007000b00370075
:1015d000a008900082f1780006003700a008900073
:1015e000818141000204e00001003a0052c2b300d0
:1015f000824978008100e800210898000000eb0093
:101600004f05be004f04be0000000600889fbe00cc
:101610008a1f780000047800c800900068019000dc
:101620000000eb00828f50003c0039001800780069
:101630002200290002016000e20f51000700320081
:10164000012020000000e0000100350001202400fe
:10165000008c70000080eb00300037000200260094
:1016600002006000820f500009003a00380090002c
:10167000808f5000060039000800780096fe0700b1
:10168000800078000080eb000100e00023003a00b9
:101690001805780000c020000000650018003a001e
:1016a000a80490006002200008004000808f5400d1
:1016b00013003a00002020001e02070020049800ba
:1016c0000000e00005003a00290498004904980051
:1016d0008904e80039049800080037000a60a00077
:1016e0000a0c78004004980001202000808040000f
:1016f00031049800400c9800500c98003b01070002
:101700002800900050049800380090006004980071
:1017100000002600180c70000000eb004f05780058
:101720004f04be0000000600fc874700889fbe00f3
:101730008a9fbe008c9fbe008e1f78000006780036
:1017400080c5b30080cf50000a00320077404000cf
:1017500080cf50000a0032006940400080cf500026
:101760000b003200b089200080bf9f00ae00200037
:101770000a003700a288200082bf9f0006003700c1
:10178000b389200083bf9f008e0020000300370034
:10179000b489200084bf9f000e0120003c02be00df
:1017a0002c03be000605be000404be0040c6b30004
:1017b00080cf5000030032006540400080cf5000d1
:1017c0000b003a00e00f5200e08f5a00e00f5b0080
:1017d000e08f5b0006003d006000b8006011b800bb
:1017e0000404500085845800060559008785590077
:1017f000e80f57000400320040002000f00f5700af
:1018000038003a000100370030002000e00f54009b
:10181000e08f5c00e00f5d00e08f5d0004003a00a7
:101820008c1090008d0120000100e00006003200c5
:101830008e00e900888060008fba9700e5c07800cc
:10184000f1ef9f007d012000800078008100e90019
:10185000050033008b05d1000a85d3008984d300ad
:101860000884d300f9ff3700089ebe000a96be0028
:10187000120037008d06e9008e00e90084806000c8
:101880000fb99700e2c1780082fd2f000f014100df
:1018900003f17e00800078008100e900050033003c
:1018a0008783d1000683d3008582d3000482d300ce
:1018b000f9ff3700049ebe000696be003c02be0043
:1018c0002c03be00e00f5200e08f5a00e00f5b00d7
:1018d000e08f5b008b0034000d00e000e5ff3c0072
:1018e000880037000c68900081c6b300814f50001b
:1018f0000b00320006003c000004e000080032004b
:10190000e6c05000814f50004e003a0004003700fe
:10191000c1c6b300814f50004a003a002100370091
:101920000800e00004003a000c1090008d01200037
:101930000000e00006003200110009000e84d8000b
:101940000fb99700e2c07800f1ef9f007d01200001
:10195000110009000e84d8000a00370011000900a8
:101960000e04d8008d06e9000e81b900020454006f
:101970008fb8970061417c0081fd2f008f8040006f
:1019800082f07e00000478000800e00002003200cf
:101990000d00e000f1ff3c00cfc4de00614db90056
:1019a00025003700e00f5400e08f5c0004003a008f
:1019b0000c1090008d0120000000e00007003200b4
:1019c0006171b9000800be00f70107008fb99700e8
:1019d000e3417800f3ef9f007d0120006171b900c1
:1019e0000800be00e00107000b0037006171b9007c
:1019f0000800be00cd0107008d06e90000f1b90026
:101a0000020454000fba9700e4427c0084fd2f00ca
:101a10000f02420005f27e000004be00e00f5000fd
:101a2000e08f5800020032000d00e000efff3c00a4
:101a30004fcdde008a057800089ebe000a96be00e3
:101a400030003700e00f5400e08f5c00e00f5d00d5
:101a5000e08f5d0004003a000c1090008d01200022
:101a60000000e000090032006172b900612bb9008a
:101a70000800be000a01be00740207000fba9700fa
:101a800064427800f4ef9f007d0120006172b9008c
:101a9000612bb9000800be000a01be006402070005
:101aa0000d0037006172b900612bb9000800be005b
:101ab0000a01be00690207008d06e90000f2b900c4
:101ac000040454008fba970065427c0085fd2f0006
:101ad0008f82420084f27e00009ebe000296be000d
:101ae0003c04be002c05be00e00f5400e08f5c00fb
:101af000e00f5d00e08f5d00020034000d00e000ab
:101b0000e8ff3c00e80f570010003a003c1090003e
:101b10000038a3000d003200f78f560006003e008b
:101b200085fd2f008f824200e5c07e0000c3b30018
:101b300080cf5000050032008d06e90002c3b300db
:101b400081fd2f008f80400082f07e00788116009a
:101b5000420e98007c00900083fd2f008f81410091
:101b60008d80410001fc07004c0890008c10900013
:101b7000810f500006003d0000805000300e98009c
:101b80003c1090000040a100301698000f00370074
:101b90000100e0000d003d00bc109000f4806000ea
:101ba000f08f500009003a002c119000ac08900012
:101bb000810051003c09900082805000008050005c
:101bc0004240a90001003400300e98004f07780011
:101bd0004f06be004f05be004f04be00cf01b1004e
:101be0000000060080e9200061003700881f7800af
:101bf000688d20001804e00003003a00f9ff070098
:101c000020c0b300004c78004f04780000000600ac
:101c1000889fbe0000047800080078002efd0700b1
:101c200080047800000420001800600002003200e8
:101c3000280090005a0007000000eb0020049800e4
:101c4000384090000004e000050035000000fb0073
:101c50005dfa07000000e000010032008084eb0024
:101c6000181090000000e00008003200a1fa070000
:101c70000000e000010032008084eb0018109000aa
:101c8000470007000000eb00101498000008200037
:101c900018006000150032000001eb006000b80081
:101ca000a38720000202d00063027a00880f52004e
:101cb00005003a000000400081804800008041009b
:101cc0000008eb000600370061004000e08048009b
:101cd0000201e800e80f5000e08f5800f0ff3a00e2
:101ce000080078002e0007000e003700000c780076
:101cf00000c0eb0030449800600220000800400063
:101d0000200498004004980050049800400c98006b
:101d100060049800500c980070049800760044000d
:101d2000000c9800090078004f04be000000060077
:101d3000881f78000004eb006140b800e2ff2f002c
:101d4000f3ff2f001b01070082882000620078004b
:101d50000000e00001003200adff07000804e800c9
:101d6000e80f5400f4ff3a004f047800000006002a
:101d7000010020000100e0000800320001008000a6
:101d80000100e000050032008100e9000100880048
:101d90008100d0000200800000b178000000060041
:101da0000000e0002f003200c0017800e38f5100f6
:101db0002c0036000308a3002a003a00a146800048
:101dc0000100e00002003200810f500004003100e9
:101dd00011009800a04688001600370082007800a5
:101de000110190000200e00002003200800f51005b
:101df000faff39001102780084824000850f5000fc
:101e000018003900808f520003003a008308420016
:101e100001007800070037000200e00003003200f4
:101e200083014000830f51000e003900120098001a
:101e300090009800900090000100e000090032003e
:101e400010014000828f500006003a00228d2000d1
:101e50000009eb001001780011084100910090008a
:101e60001100980000000600889fbe000004780062
:101e7000914680000100e00002003200010078007d
:101e80000d003700a1468000408d2000040037007f
:101e9000910f5400250036000180e8009100900069
:101ea0000100e000faff3a0010003700920f5400e2
:101eb0001e0036000280e800100178000200e000f9
:101ec000faff3a0011017800a1468000408d200001
:101ed00004003700910f5400140036000180e80020
:101ee00091009000828f5000faff3a00c9468000ae
:101ef000888f5400010031008804780009007800c0
:101f0000360007000000e00004003a00888f54000b
:101f1000050032008904d100f5ff37000918780068
:101f20009fff0700d2ff37000000eb004f04be0008
:101f300000000600881f7800630440000800a1002c
:101f40008000eb00800f540021003600e30f5400a6
:101f500001003e004800200008007800c2ff070092
:101f60008000eb000000e0001900320090007800d3
:101f70009101780064815100880f51000300310005
:101f80001101900002087800070037000881400026
:101f90000208780091019000130198001001780068
:101fa0001109140088087800100178000000eb0087
:101fb0000200e00004003200920190000300e00003
:101fc000010032000280e800904688008180e8002d
:101fd000010078004f0478000000060080007800bf
:101fe0000000eb000100e000050034000100780073
:101ff000c9f90700e10f400001003a000000eb00c2
:102000000000060000c0da000000060000c0da0090
:102010000000060000c0da00000006003400f800ee
:102020003200f8000203be008202700085027200d6
:1020300002f0a6008301e800a301880000f0a600da
:102040008100e800910188001500b2000c00320008
:10205000104978000402e9001500320061014100d6
:10206000020039003420ec0002002800610040002a
:10207000f7ff39003220ec0000002800f4ff3700a1
:10208000100978000482e900090032006201410071
:10209000020039003420ec000200280062004000f9
:1020a000f7ff39003220ec0000002800f4ff370071
:1020b0003200f9003400f9000601be0000000600fd
:1020c0000300e000070032009501800091018800c4
:1020d00010427800950188000402fb00820f520034
:1020e000110032008301e900950180009101880010
:1020f00010427800950188000404e00008003200d6
:10210000000278001000b00000026a004260af00d8
:1021100000f0a0000482d2000180b000e8ff370088
:10212000000020000100200000000600839f6800de
:102130000100e00002003d0060001000e080180097
:102140000300e00002003d0060011100e081190081
:10215000050007004f00e00002003b006000100097
:10216000e0801800000006006022b800060220008f
:102170000000d0008180d2000482d2008582d2008b
:102180000000a0000202520083825a0003003100c6
:102190000202420083824a000000a1000603e90017
:1021a000f3ff3a0000000600efff07000400be0046
:1021b00000000600020ab900001bb9000200b800c6
:1021c000810042008100430000000600889fbe009d
:1021d0008a9fbe0030044200b0844a0030054b00a4
:1021e00090854b006000b1000898be000a90be00c8
:1021f0000440e10005c8e10006d0e10007d8e10095
:1022000002003100680040001008e8004f05be00e1
:102210004f04be0000000600889fbe008a9fbe00db
:102220003004be002005be000418540005985c0070
:1022300006185d0007985d00110020000440e100d1
:1022400005c8e10006d0e10007d8e100010039002f
:102250008000eb00108810004f05be004f04be0048
:10226000000006001200fa00889fbe008a9fbe0090
:102270008c9fbe00e0b79f00f1b79f0082bf9f0018
:1022800093bf9f000605be000404be000000eb00e3
:10229000d0b79f00c0b79f00b0b79f00a0b79f0006
:1022a00090b79f00000678005fb19700cfb097000d
:1022b000820141003fb097000200e00004003d00b1
:1022c000370007007e805700c0ff0700030037007b
:1022d000330007007e805700cfff0700dfb697006e
:1022e0000d00e0000c0035006fb29700ffb29700c0
:1022f0000fbb97009fbb970010002000010020003b
:102300006011b80000027200818272000203730043
:10231000838373001b0007000c06e8000104200003
:10232000810f5600e0ff3a000d00e00004003d0080
:102330000802be000a03be007e805700a3ff07000c
:102340005fa897000000e00005003a001fb2970068
:10235000afb297003fb39700cfb3970009000700d3
:102360006fb09700ffb097000fb997009fb9970023
:102370004f06be004f05be004f04be000080fa00ad
:10238000000006000100070000000600a4b79f003f
:10239000b5b79f00c6b79f00d7b79f0000000600e3
:1023a0004f09de0082817100b3b79f004f01de004c
:1023b0008180400082807000a1b79f008fb097009d
:1023c0004f09de00000040000200700090b79f003f
:1023d0007fa897004f01de0081804000828070005e
:1023e00081b79f000d0007004f3ade00000040005b
:1023f00004007000f0af9f000800070004024200d4
:1024000085824a0006034b0087834b00dfff0700ed
:102410000802be000a03be00000006002fb29700ab
:10242000bfb297004fb39700dfb3970000000600dc
:10243000881f780018002000881f780089ff070097
:102440008f87e9004f04780000000600801feb0032
:1024500084ff07008f87e90000000600889fbe0008
:102460008a9fbe00e00f5000e08f5800e00f590037
:10247000e08f59000c003d006044b8006055b80082
:102480000000540081805c0002015d0083815d00da
:10249000180020001500070008003d001800070084
:1024a0000004eb00050037000004eb000f000700fc
:1024b00002003d001200070018002000dcff0700aa
:1024c0000800e000060032006022b8006033b80067
:1024d0000000520081805a0002015b0083815b0092
:1024e0004f05be004f04be0000000600e00f520082
:1024f000e08f5a00e00f5b00e08f5b0000000600f9
:102500006044b8006055b8000402540085825c0045
:1025100006035d0087835d0000000600889fbe0003
:102520008a9fbe008c1f7800e00f5000e08f58009b
:10253000e00f5900e08f59000d003d006044b800e5
:102540006055b8000000540081805c0002015d000d
:1025500083815d001c0020000820e10009a8e10043
:102560000ab0e1000bb8e1000d003d0008003700a3
:102570000006eb00e00f5200e08f5a00e00f5b0016
:10258000e08f5b0006003d006044b8006055b80075
:102590000402540085825c0006035d0087835d00b1
:1025a000aaff07000c00e000060032006022b8001d
:1025b0006033b8000000520081805a0002015b00c5
:1025c00083815b004f0678004f05be004f04be00bc
:0425d0000000060001
:020000040000fa
:1025d400486500006c6c00006f0000004c30000087
:1025e400200000004c310000200000004c320000ac
:1025f400200000004f4e0000200000004f46000065
:102604004620000000550000415200005400000024
:10261400535000004900000049320000430000000c
:1026240025640000005400006f740000616c000019
:10263400205000006f77000065720000203d00000c
:10264400200000006d570000200000005030000002
:102654002000000050310000200000005032000033
:0826640020000000300000001e
:020000040000fa
:10266c000200fa00000f7800100037001e007800fe
:10267c00104078000002fb002200280043002000dc
:10268c00a00180008302780082007800a5018800f8
:10269c0084087800a00188009021ef00800c800055
:1026ac00e10f5000fdff36001e0fe8001e00780001
:1026bc00104078000004e000ecff3a000080fa00c3
:1026cc00000006000000fa0041098000f07f2e0097
:1026dc000080600040098800410980000030200023
:1026ec00010070004009880041098000f0f32f00c0
:1026fc00008060004009880028a1a9002881a90059
:10270c002841a900002020009009880031e1a9008f
:10271c0031c1a8003181a8003141a8003121a800a5
:10272c0031a1a8003101a80081098000f0f92f0027
:10273c000080600080098800a1098000f0ff230060
:10274c0000806000a0098800a1098000000c200016
:10275c0001007000a0098800a1098000c0032000be
:10276c0001007000a0098800a00980003000b300af
:10277c00a00988002a61ef00100020007009880071
:10278c002de1a8002dc1a8002d81a8002da1a80025
:10279c006109800000602000010070006009880061
:1027ac002d01a80029e1a8000080fa000000060015
:1027bc000800fa00889fbe008a9fbe008c9fbe0056
:1027cc00c0ff070000032800a00c88009021ef0038
:1027dc00810c8000b0762000808f5000fcff36000a
:1027ec008203200001002800010f78004100200026
:1027fc0011079800a00180009e0190009e007800b7
:10280c00a301880082087800a00188009021ef00c5
:10281c00800c8000e10f5000fdff3600c20020004c
:10282c000100280021079800410020003107980082
:10283c00a0018000be019000ae009000a3018800b2
:10284c0082087800a00188009021ef00800c8000a5
:10285c00e10f5000fdff3600620020000c00280044
:10286c004d002000a00180008d0178008c007800c4
:10287c00a301880082087800a00188009021ef0055
:10288c00800c8000e10f5000fdff3600120020008c
:10289c000a0028004b002000a00180008b0178006a
:1028ac008a007800a301880082087800a0018800c3
:1028bc009021ef00810c800030032000808f5000ad
:1028cc00fcff3600220020000800280049002000f0
:1028dc00a00180008901780088007800a30188009d
:1028ec0082087800a00188009021ef00810c800004
:1028fc0030032000808f5000fcff36004f06be00d6
:10290c004f05be004f04be000080fa000000060018
:10291c000000fa00a02e290051ff07000080fa00e9
:10292c00000006000a00fa00889fbe008a9fbe00c5
:10293c0040079800002f290010079800402f29000d
:10294c0020079800802f2900300798000000eb002a
:10295c00000f78000000eb00000f78002200370019
:10296c001e007800e20f50000d003a00020c20000f
:10297c000a0028004b002000a00180008b01780089
:10298c008a007800a301880082087800a0018800e2
:10299c009021ef00800c8000e10f5000fdff36000d
:1029ac001e0078000000400000004700100090005e
:1029bc002bff07001e00780000004000ce009000a6
:1029cc0000804000100078000000e000030032009e
:1029dc00c02f290022ff0700020037000030290019
:1029ec001fff07001e0fe8001e007800e20f5000ca
:1029fc00dbff3400020820000800280049002000fa
:102a0c00a00180008901780088007800a30188006b
:102a1c0082087800a00188009021ef00800c8000d3
:102a2c00e10f5000fdff36004f05be004f04be0005
:102a3c000080fa00000006000200fa00000f780087
:102a4c001e0078000000e00003003a00503029001e
:102a5c0003ff07000b0037001e007800e10f500049
:102a6c0003003a00a0302900fdfe070005003700e6
:102a7c001e007800e20f500002003a00e0302900fe
:102a8c00f7fe07000080fa00000006001400fa00b0
:102a9c00889fbe008a9fbe008c9fbe00000f9800ce
:102aac00110f98001e0890000000e0002f0032006b
:102abc000000eb00000f78000000eb0010079800fe
:102acc000000eb00100798000b0037001e00900070
:102adc00000040008e08900000804000100078003c
:102aec006f00b900000078001e0f40001e0090001f
:102afc000000e800100798001e009000e20f500044
:102b0c00f2ff3400660047009e1f78002131290037
:102b1c00811f780033f70700e487570050312900f4
:102b2c00cffe0700020c20000c0028004d002000f6
:102b3c00a00180008d0178008c007800a301880032
:102b4c0082087800a00188009021ef00800c8000a2
:102b5c00e10f5000fdff360066004700c0fe070085
:102b6c0040322900befe07004800370080322900a1
:102b7c0050079800c03229006007980000332900e4
:102b8c007007980066004700f1002000811f780054
:102b9c0021312900811f780012f70700e4875700c4
:102bac000000eb00200798000000eb0020079800c5
:102bbc00260037002e009000e20f50000d003a0066
:102bcc00020c20000a0028004b002000a00180000d
:102bdc008b0178008a007800a301880082087800b5
:102bec00a00188009021ef00800c8000e10f5000c4
:102bfc00fdff36002e009000000040000000470052
:102c0c005000900096fe07002e009000000040003f
:102c1c008e08900000804000100078000000e0005a
:102c2c0003003200660047008dfe070002003700eb
:102c3c00403329008afe07004032290088fe070035
:102c4c002e0090000000e800200798002e00900055
:102c5c00e20f5000d7ff34000208200008002800c3
:102c6c0049002000a00180008901780088007800cc
:102c7c00a301880082087800a00188009021ef0051
:102c8c00800c8000e10f5000fdff36004f06be00a7
:102c9c004f05be004f04be000080fa000000060085
:102cac000000fa0013002000000028004100200062
:102cbc00a20180000102780000007800a4018800c5
:102ccc0003087800a20188009021ef00810c80009d
:102cdc0030032000808f5000fcff36000080fa008b
:042cec0000000600de
:020000040000fa
:102cf000c608000006000000800000000008000078
:102d00000200000080000000cc0800000600000067
:102d100080000000ac0800001a00000082000000e3
:102d2000686a6c00747a4c00000001000002000028
:102d30000400080000100000000020002b2d2300dc
:102d4000300000000208000088000000820000003f
:102d500001000000002808002908280008280800b1
:102d600028082800081808000000000000000000e3
:102d70000000000000000000000000000000000053
:102d80000000000000020800010150000851080086
:102d9000500850000850080050084000080000008b
:102da0000000000000000000000000000000000023
:102db0000000000000000000000002000802020005
:102dc0007808790008780800780878000878080002
:102dd0006808000000000000000000000000000083
:102de00000000000000000000000000000000000e3
:102df00002082a000852080000000000000000003d
:102e000000000000000000008a080000220000000e
:102e1000820000003031320033343500363738005c
:102e2000394142004344450046003000313233000e
:102e300034353600373839006162630064656600f6
:102e400000000000d6080000020000008000000022
:102e5000d80800000200000082000000040000000a
:102e6000d20800000400000080000000da08000022
:102e7000020000008200000001000000dc080000e9
:0c2e8000020000008000000000000000c4
:020000040000fa
:102e8c000200fa00000f78001e007800e20f5000dc
:102e9c000e003e001e00780080004000c08c200018
:102eac00008040001000780000f0a7000000ea004d
:102ebc000000e9004f00de009e0078000181400018
:102ecc00c18c200081004100800878001e00780031
:102edc00e10f500014003200e10f500003003900e4
:102eec00e20f50001f0032002d0037001e0078004a
:102efc0080004000c08c2000008040001000780052
:102f0c0000407800614060000080fb0061006000c0
:102f1c004400dd00d13380000140a10001007000ad
:102f2c00d03388001e0037001e007800800040005f
:102f3c00c08c200000804000100078000040780019
:102f4c00614060000080fb00610060004300dd0018
:102f5c00d13380000130a10001007000d033880013
:102f6c000f0037001e00780080004000c08c20004d
:102f7c000080400010007800004078006140600044
:102f8c000080fb00610060004200dd00d133800056
:102f9c000120a10001007000d03388000000000067
:102fac000080fa00000006000000fa0090012000ea
:102fbc00001d88009823ef00c11c8000f0cf2f006b
:102fcc0000806000c01c88009863a900c11c8000b0
:102fdc0090ff2f0000806000c01c88009803a9009f
:102fec009ba3a9009be3a900d11c8000f0f32f0048
:102ffc0000806000d01c88000080fa0000000600f1
:10300c000000fa009f26a800a13d800000fc2f00c4
:10301c00008060000020a000a03d88009f46a90011
:10302c00b13e8000f00f280080806000003020004e
:10303c0001007000b03e88000110200062042000e6
:10304c0073052000824878008348780000c1a800ee
:10305c000080fa00000006000000fa0099e3a800c6
:10306c009b43a8009b83a8008980a9008960a900c4
:10307c0069100900000000000080fa000000060042
:10308c000000fa0081e0a9009960a8008960a900fd
:10309c000080fa00000006000200fa00004f7800e1
:1030ac00d11c800000102000008060000000e000b7
:1030bc00020032001e00fb00e01c88000080fa00b9
:1030cc00000006000200fa00d01c800062006000c4
:1030dc000000e000010032009a23a90041048000a6
:1030ec0000802000008060000000e000080032003a
:1030fc0002003700f01c8000004f7800d01c8000cc
:10310c00610060000000e000faff3a008960a9004d
:10311c001e4078000080fa00000006000000fa0053
:10312c007fc6a90077c6a80087c6a90089c6a800d3
:10313c0001102000620420007305200082487800f2
:10314c008348780000c1a900813c8000f00f2c005e
:10315c008080600000e0200001007000803c88004e
:10316c0001102000620420007305200082487800c2
:10317c008348780000c1a80081e0a9008220a90042
:10318c008a80a9009a80a8000080fa00000006003e
:10319c000000fa007686a9007666a9007646a9009a
:1031ac007e86a9007e66a9007e46a9000080fa00f2
:1031bc00000006000000fa006ac6a90062c6a8005a
:1031cc0072c6a90074c6a8005fe6a8006cc6a80069
:1031dc006ec6a90070c6a9000080fa0000000600a7
:1031ec000000fa00eaff07006fff070084ff0700ea
:1031fc0099ff0700a2ff07006dfd0700c7ff07003e
:10320c00c3fd070001000700ffff37000000fa00b4
:0c321c0083e0a8000080fa00000006001b
:020000040000fa
:020000040015e5
:047e3000f8ffff0058
:020000040000fa
:020000040015e5
:047e40009fffff00a1
:020000040000fa
:020000040015e5
:047e5000deffff0052
:00000001FF
